:020000040800F2
:10000000008001205D120008AD120008AD1200084A
:10001000AD120008AD120008AD120008000000008B
:10002000000000000000000000000000AD12000809
:10003000AD12000800000000AD120008E504000841
:10004000AD120008AD120008AD120008AD12000894
:10005000AD120008AD120008AD120008AD12000884
:10006000AD120008AD120008AD120008AD12000874
:10007000AD120008AD120008AD120008AD12000864
:10008000AD120008AD120008AD120008000000001B
:10009000000000000000000000000000AD12000899
:1000A000AD120008AD120008AD120008AD12000834
:1000B000AD120008AD120008AD120008AD12000824
:1000C000AD120008AD120008AD120008AD12000814
:1000D000AD120008AD120008F10400080000000095
:1000E000AD120008AD120008AD12000800000000BB
:1000F000000000000000000000000000AD12000839
:1001000000000000AD120008AD120008AD1200089A
:1001100000000000000000000000000000000000DF
:10012000AD120008AD120008AD120008AD120008B3
:10013000AD120008000000000000000000000000F8
:10014000000000000000000000000000AD120008E8
:10015000AD120008AD120008AD120008AD12000883
:10016000AD120008AD120008000000000000000001
:10017000000000000000000000000000000000007F
:1001800000000000AD1200080000000000000000A8
:04019000AD120008A4
:1001940010B5054C237833B9044B13B10448AFF3BD
:1001A40000800123237010BD100000200000000017
:1001B400F812000808B5034B1BB103490348AFF319
:1001C400008008BD0000000014000020F8120008A0
:1001D40053B94AB9002908BF00281CBF4FF0FF31AA
:1001E4004FF0FF3000F072B9ADF1080C6DE904CEA8
:1001F40000F006F8DDF804E0DDE9022304B07047FE
:100204002DE9F047089E04468846002B4BD18A42CC
:10021400154667D9B2FA82F24AB1C2F1200701FA4F
:1002240002F320FA07F7954047EA030894404FEA9F
:10023400154E230CB8FBFEF71FFA85FC0EFB17883E
:1002440043EA084307FB0CF1994209D9EB1807F17B
:10025400FF3080F01B81994240F21881023F2B4409
:100264005B1AA4B2B3FBFEF00EFB103344EA034462
:1002740000FB0CFCA44509D92C1900F1FF3380F0D4
:100284000781A44540F2048102382C4440EA074027
:10029400A4EB0C0400271EB1D4400023C6E900439C
:1002A4003946BDE8F0878B4209D9002E00F0EB8077
:1002B4000027C6E9000138463946BDE8F087B3FA9D
:1002C40083F7002F47D18B4202D3824200F2FA8097
:1002D400841A61EB030301209846002EE0D0C6E99E
:1002E4000048DDE702B9FFDEB2FA82F2002A40F0EC
:1002F4008F80491B4FEA154E1FFA85F80127B1FB81
:10030400FEFC230C0EFB1C1143EA014308FB0CF119
:10031400994207D9EB180CF1FF3002D2994200F24E
:10032400CD808446591AA3B2B1FBFEF00EFB101423
:1003340043EA044408FB00F8A04507D92C1900F14E
:10034400FF3302D2A04500F2B6801846A4EB08049D
:1003540040EA0C409FE7C7F1200CBB4022FA0CFE98
:100364004EEA030E01FA07F420FA0CF521FA0CF315
:100374004FEA1E482543B3FBF8F92C0C08FB19334C
:100384001FFA8EFA44EA034309FB0AF49C4202FA78
:1003940007F200FA07F10BD91EEB030309F1FF3052
:1003A40080F087809C4240F28480A9F10209734462
:1003B4001B1BADB2B3FBF8F008FB103345EA034452
:1003C40000FB0AFAA24508D91EEB040400F1FF332E
:1003D4006BD2A24569D90238744440EA0940A0FBB3
:1003E4000289A4EB0A044C45C2464B4654D351D06F
:1003F400002E69D0B1EB0A0564EB030404FA0CFC8B
:10040400FD40FC404CEA0505C6E90054002747E7D7
:10041400C2F1200320FA03F7954001FA02F021FA11
:1004240003F34FEA154E3843010CB3FBFEF71FFAF2
:1004340085F80EFB173341EA034107FB08F38B42AF
:1004440004FA02F407D9691807F1FF3C2FD28B4252
:100454002DD9023F2944CB1A81B2B3FBFEF00EFB27
:10046400103341EA034100FB08F38B4207D96918B2
:1004740000F1FF3C17D28B4215D902382944C91A1E
:1004840040EA07473BE73746304609E70746E7E6D1
:100494001846FBE64145ABD2B8EB020A69EB0E0203
:1004A40001381346A4E76046E9E7184695E767462E
:1004B400D1E781467CE702382C4447E7ACF1020CD3
:1004C4002B442FE7384608E73746E9E6704700BF74
:1004D400034613F8012B002AFBD1181A0138704780
:1004E40008B500F00FF900F08AF908BD08B5024814
:1004F40000F042FD08BD00BF30000020FEE7000010
:1005040008B50948094B03604FF4E1334360002305
:100514008360C360036183610C23436100F007FCC3
:1005240000B908BDFFF7EAFF300000200044004096
:1005340038B5124C2068FFF7CBFF85B200F0C8F83D
:10054400FFF7DEFF4FF0FF332A4621680C4800F026
:100554001DFC01220B490A4800F061FE0A4B1B787E
:10056400012BF6D1084C4FF0FF3362780749044859
:1005740000F00CFC002323706370EAE70000002005
:1005840030000020D80000202C000020740000203F
:10059400094B1B780D2B06D008494A78501C48702B
:1005A40007498B547047054A012111705178481C42
:1005B4005070034A53547047D80000202C00002088
:1005C4007400002008B5032000F0AEF80B4A536A0B
:1005D40043F4E0235362002211466FF00B0000F055
:1005E400B5F8002211466FF00A0000F0AFF80022BF
:1005F40011466FF0090000F0A9F808BD00ED00E015
:1006040030B589B000240194184B1A6C42F40032BE
:100614001A641A6C02F400320192019A02941A6B61
:1006240042F001021A631B6B03F001030293029B65
:1006340004230393022304930123059306940723BD
:1006440007930B4D03A9284600F03AF908230393B6
:1006540003A9284600F034F9262000F0ABF822461E
:100664000F21262000F072F809B030BD0038024096
:1006740000000240034AD2F8883043F47003C2F801
:100684008830704700ED00E010B504460E4B187832
:100694004FF47A73B3FBF0F30C4A1068B0FBF3F039
:1006A40000F096F868B90F2C01D901200AE0002265
:1006B40021464FF0FF3000F049F8034B5C60002006
:1006C40000E0012010BD00BF08000020040000204D
:1006D40008B50B4B1A6842F400721A601A6842F4A7
:1006E40080621A601A6842F480721A60032000F073
:1006F4001BF80020FFF7C8FFFFF764FF002008BDC8
:10070400003C0240034A1168034B1B780B441360FE
:10071400704700BFDC00002008000020014B18686F
:10072400704700BFDC000020074AD36823F4E0636D
:100734001B041B0C000200F4E060184340F0BF608F
:1007440040F40030D060704700ED00E030B4174B47
:10075400DB68C3F30223C3F10704042C28BF042479
:100764001D1D062D18D9033B4FF0FF3505FA04F47F
:1007740021EA0401994005FA03F322EA0303194329
:1007840000280BDB0901C9B200F1604000F56140AB
:1007940080F8001330BC70470023E5E700F00F0039
:1007A4000901C9B2024B1954F4E700BF00ED00E09F
:1007B40014ED00E0002807DB00F01F0240090123CC
:1007C4009340024A42F82030704700BF00E100E045
:1007D4000138B0F1807F0AD2064B5860064AF021F6
:1007E40082F823100020986007221A6070470120C5
:1007F400704700BF10E000E000ED00E0704708B56E
:10080400FFF7FCFF08BD70B50446866DFFF786FF51
:1008140094F83530DBB2022B06D0802363650023C5
:1008240084F83430012070BD05462268136823F033
:10083400160313602268536923F080035361236C09
:10084400E3B12268136823F0080313602268136875
:1008540023F00103136023681B6813F0010F11D008
:10086400FFF75CFF401B0528F5D9202363650320AF
:1008740084F83500002384F83430D4E7A36C002BCB
:10088400DFD1E3E7E26D3F239340B360012384F8B3
:100894003530002084F83400C5E790F83530DBB2F9
:1008A400022B03D08023436501207047052380F881
:1008B40035300268136823F0010313600020704789
:1008C40000230F2B00F2CA80F0B482B05DE086688A
:1008D4005F000324BC4026EA0406CC68BC403443D1
:1008E4008460466826EA02064C68C4F300129A4003
:1008F4003243426056E0DC08083450F8247003F0B8
:10090400070296000F22B24027EA02070A69B240A2
:100914003A4340F8242059E0042200E00022B24087
:100924003A4302344E4E46F824204E4A1468EA43B1
:1009340002EA04064F6817F4803F01D045EA040632
:10094400484C2660646802EA04064F6817F4003FC6
:1009540001D045EA0406434C6660A46802EA040632
:100964004F6817F4801F01D045EA04063D4CA66089
:10097400E46822404E6816F4001F01D045EA0402E0
:10098400384CE26001330F2B65D801229A400C6881
:1009940004EA0205AA42F5D14C6804F00304013CC0
:1009A400012C94D94A6802F00302032A09D0C468CE
:1009B4005E000322B24024EA02048A68B240224361
:1009C400C2604A6802F00302022A94D004685E00FE
:1009D4000322B24024EA02044A6802F00302B2404D
:1009E400224302604A6812F4403FCBD000220192B5
:1009F4001D4A546C44F480445464526C02F48042A2
:100A04000192019A9C08A61C154A52F8267003F01C
:100A1400030296000F22B24027EA0207134A9042CB
:100A24003FF47CAF02F5806290420ED002F5806202
:100A340090420CD002F5806290420AD002F58062A6
:100A440090423FF469AF072269E7012267E7022277
:100A540065E7032263E702B0F0BC7047704700BF4C
:100A640000380140003C01400038024000000240D0
:100A7400014B1868704700BF0400002008B5FFF759
:100A8400F7FF044B9B68C3F38223034AD35CD8402B
:100A940008BD00BF003802402013000808B5FFF766
:100AA400E7FF044B9B68C3F34233034AD35CD8404B
:100AB40008BD00BF0038024020130008026802F19C
:100AC4000C0353E8003F23F490730C3242E80031E6
:100AD4000029F3D1026802F1140353E8003F23F024
:100AE4000103143242E800310029F3D1036B012BD6
:100AF40005D0202380F83E3000230363704702684A
:100B040002F10C0353E8003F23F010030C3242E8D7
:100B140000310029F3D1ECE790F83D30DBB2212B12
:100B240027D18368B3F5805F16D0036A5A1C02622A
:100B34001A7803685A60C38C013B9BB2C384D3B94F
:100B44000268D36823F08003D3600268D36843F05B
:100B54004003D360002070470369002BE5D1036A8A
:100B64001B880268C3F308035360036A02330362F9
:100B7400E1E7022070470020704700002DE9F04BA8
:100B840004460268136923F44053C1680B4313619C
:100B940083680269134342691343C2691A430168B3
:100BA400CB6823F4164323F00C031343CB60026891
:100BB400536923F4407381690B43536103683A4AD0
:100BC400934206D002F58062934202D0FFF756FFAB
:100BD40001E0FFF763FFE369B3F5004F30D04FF056
:100BE4000009061849EB090716EB000B47EB090C43
:100BF4004FEACC0343EA5B734FEACB0293469C462D
:100C040063689A009B0F10EB0B0049EB0C01FFF794
:100C1400DFFA264DA5FB00325109642202FB1102C2
:100C240013013233A5FB03235B0903F0F00202EB4B
:100C3400011203F00F03216813448B60BDE8F08BAD
:100C440083464FF0000C06184CEB0C0716EB00081B
:100C540047EB0C094FEAC90343EA58734FEAC80249
:100C64009046994662680021921841EB01031BEB00
:100C740008004CEB0901FFF7ABFA0C4DA5FB003261
:100C84005109642202FB1102D3003233A5FB032372
:100C94005B095A0002F4F87202EB011203F0070335
:100CA400216813448B60C9E7001001401F85EB5194
:100CB4002DE9F04104460F4616469846069D2368E2
:100CC4001B6837EA03030CBF01230023B3422BD173
:100CD400B5F1FF3FF3D02DB1FFF720FDA0EB0800E5
:100CE400A842ECD9226802F10C0353E8003F23F434
:100CF400D0730C3242E800310029F3D1226802F1AA
:100D0400140353E8003F23F00103143242E8003196
:100D14000029F3D1202384F83D3084F83E300023A9
:100D240084F83C30032000E00020BDE8F08158B393
:100D340010B5044690F83D300BB3242384F83D30BD
:100D44002268D36823F40053D3602046FFF716FFCC
:100D54002268136923F4904313612268536923F0D2
:100D64002A0353612268D36843F40053D3600020FC
:100D74002064202384F83D3084F83E3010BD80F890
:100D84003C30FFF73DFCD8E7012070472DE9F041E6
:100D940082B01E4690F83D30DBB2202B54D104467D
:100DA4000D469046002954D0002A54D090F83C3087
:100DB400012B52D0012380F83C300023036421230B
:100DC40080F83D30FFF7AAFC0746A4F82480A4F875
:100DD4002680A368B3F5805F05D04FF00008002398
:100DE40084F83C3011E0236913B14FF00008F6E7B2
:100DF400A8460025F3E738F8023B2268C3F308034A
:100E04005360E38C013B9BB2E384E38C9BB273B1EC
:100E140000963B46002280212046FFF749FFF0B9A7
:100E2400002DE8D015F8012B23685A60E9E70096F5
:100E34003B46002240212046FFF73AFF034680B993
:100E4400202284F83D2000E00223184602B0BDE8C9
:100E5400F0810123F9E70123F7E70223F5E70323F0
:100E6400F3E70323F1E7704708B50168CB6823F083
:100E74004003CB60202380F83D30FFF7F4FF0020CF
:100E840008BD704708B5806B0023C385C384FFF792
:100E9400F8FF08BD704790F83E30DBB2222B67D1D3
:100EA4008368B3F5805F4CD0826AB3F5805F04D069
:100EB400002B53D10369002B50D103685B68137076
:100EC400836A01338362C38D013B9BB2C385002BCC
:100ED40050D100B583B00268D36823F02003D360F7
:100EE4000268D36823F48073D3600268536923F0E3
:100EF40001035361202380F83E30036B012B33D16F
:100F040000230363026802F10C0353E8003F23F05B
:100F140010030C3242E800310029F3D103681A6847
:100F240012F0100F06D0002201921A6801925B6839
:100F34000193019B818DFFF7ADFF002003B05DF8A5
:100F440004FB0269002AAFD1826A03685B68C3F3B9
:100F540008031380836A02338362B4E703685B681F
:100F640003F07F031370ABE7FFF712FB0020E5E704
:100F7400022070470020704730B583B004460268F1
:100F84001368D068516913F00F0505D113F0200FD1
:100F940002D010F0200F5ED1002D72D011F00101AB
:100FA40002D110F4907F6CD013F0010F06D010F42E
:100FB400807F03D0226C42F00102226413F0040FFC
:100FC40004D019B1226C42F00202226413F0020F21
:100FD40004D019B1226C42F00402226413F0080F09
:100FE40007D010F0200F00D119B1226C42F0080292
:100FF4002264226C002A55D013F0200F02D010F086
:10100400200F2CD123685B6903F04003226C12F09B
:10101400080F00D17BB32046FFF750FD23685B69BE
:1010240013F0400F23D0226802F1140353E8003F69
:1010340023F04003143242E800310029F3D1A36BBA
:101044008BB1684A1A65A06BFFF727FC50B3A06BFD
:10105400036D984726E02046FFF71DFF22E0204657
:10106400FFF719FFCEE72046FFF70BFF1AE02046F3
:10107400FFF707FF16E02046FFF703FF0023236472
:1010840010E0216B01290FD013F0800F03D010F072
:10109400800F40F09F8013F0400F03D010F0400FFA
:1010A40040F09C8003B030BD13F0100FECD010F072
:1010B400100FE9D00023019313680193536801933F
:1010C400019B536913F0400F4DD0A26B13685B680A
:1010D4009BB2002BE6D0A18D9942E3D9E385D36975
:1010E400B3F5807F37D0226802F10C0353E8003F48
:1010F40023F480730C3242E800310029F3D12268D2
:1011040002F1140353E8003F23F00103143242E8D0
:1011140000310029F3D1226802F1140353E8003F9F
:1011240023F04003143242E800310029F3D1202394
:1011340084F83E3000232363226802F10C0353E851
:10114400003F23F010030C3242E800310029F3D1B0
:10115400A06BFFF758FBA18DE38DC91A89B2204615
:10116400FFF798FE9EE7A18DE38DC91A89B2E38D3E
:101174009BB2002B96D0002994D0226802F10C0374
:1011840053E8003F23F490730C3242E80030002807
:10119400F3D1226802F1140353E8003F23F0010362
:1011A400143242E800300028F3D1202384F83E3082
:1011B40000232363226802F10C0353E8003F23F069
:1011C40010030C3242E800300028F3D12046FFF728
:1011D40061FE67E72046FFF79FFC63E72046FFF7C1
:1011E40043FE5FE7890E0008034681628285C2855B
:1011F40000201864222283F83E2083F83C001968FA
:10120400CA6842F48072CA6019684A6942F00102ED
:101214004A611A68D36843F02003D360704708B565
:1012240090F83E30DBB2202B0DD171B17AB190F839
:101234003C30012B0DD0012380F83C3000230363A4
:10124400FFF7D2FF00E0022008BD0120FCE70120E7
:10125400FAE70220F8E70000DFF834D00D480E4921
:101264000E4A002302E0D458C4500433C4188C42FC
:10127400F9D30B4A0B4C002301E013600432A24261
:10128400FBD3FFF7F7F900F011F8FFF751F97047B6
:1012940000800120000000201000002058130008E6
:1012A40010000020E0000020FEE7000070B50D4EA5
:1012B4000D4CA41BA4100025A54209D10B4E0C4CC7
:1012C40000F018F8A41BA4100025A54205D170BD98
:1012D40056F8253098470135EEE756F825309847FB
:1012E4000135F2E7501300085013000850130008AA
:1012F40054130008F8B500BFF8BC08BC9E467047FC
:0C130400F8B500BFF8BC08BC9E4670475E
:1013100000000000000000000102030406070809A5
:1013200000000000010203045472616E736D697362
:1013300073696F6E20686173207374617274656481
:081340002121210A0D0000002B
:08134800BCEEFF7F0100000074
:04135000B9010008D7
:0413540095010008F7
:10135800281300080024F400010000001000000019
:040000050800125D80
:00000001FF
